00000001JOSE DOS SANTOS               0001C00000150075
00000002MARIA SILVA                   0001P00000025000
00000003CARLOS OLIVEIRA               0002C00000005025
00000004ANA BEATRIZ                   0002P00000230050
00000005PEDRO HENRIQUE                0003C00000087540
00000006LUCAS FERREIRA                0001C00000125090
00000007JULIANA COSTA                 0004P00000350000
00000008RAFAEL ALMEIDA                0002C00000042575
00000009FERNANDA ROCHA                0003P00000180025
00000010GABRIEL MARTINS               0004C00000275080
